{
  "_format": "hh-sol-artifact-1",
  "contractName": "NFTMarketplace",
  "sourceName": "contracts/NFTMarketplace.sol",
  "abi": [
    {
      "anonymous": false,
      "inputs": [
        {
          "indexed": false,
          "internalType": "address",
          "name": "nftAddress",
          "type": "address"
        },
        {
          "indexed": false,
          "internalType": "uint256",
          "name": "tokenId",
          "type": "uint256"
        },
        {
          "indexed": false,
          "internalType": "address",
          "name": "seller",
          "type": "address"
        }
      ],
      "name": "ListingCanceled",
      "type": "event"
    },
    {
      "anonymous": false,
      "inputs": [
        {
          "indexed": false,
          "internalType": "address",
          "name": "nftAddress",
          "type": "address"
        },
        {
          "indexed": false,
          "internalType": "uint256",
          "name": "tokenId",
          "type": "uint256"
        },
        {
          "indexed": false,
          "internalType": "uint256",
          "name": "price",
          "type": "uint256"
        },
        {
          "indexed": false,
          "internalType": "address",
          "name": "seller",
          "type": "address"
        }
      ],
      "name": "ListingCreated",
      "type": "event"
    },
    {
      "anonymous": false,
      "inputs": [
        {
          "indexed": false,
          "internalType": "address",
          "name": "nftAddress",
          "type": "address"
        },
        {
          "indexed": false,
          "internalType": "uint256",
          "name": "tokenId",
          "type": "uint256"
        },
        {
          "indexed": false,
          "internalType": "address",
          "name": "seller",
          "type": "address"
        },
        {
          "indexed": false,
          "internalType": "address",
          "name": "buyer",
          "type": "address"
        }
      ],
      "name": "ListingPurchased",
      "type": "event"
    },
    {
      "anonymous": false,
      "inputs": [
        {
          "indexed": false,
          "internalType": "address",
          "name": "nftAddress",
          "type": "address"
        },
        {
          "indexed": false,
          "internalType": "uint256",
          "name": "tokenId",
          "type": "uint256"
        },
        {
          "indexed": false,
          "internalType": "uint256",
          "name": "newPrice",
          "type": "uint256"
        },
        {
          "indexed": false,
          "internalType": "address",
          "name": "seller",
          "type": "address"
        }
      ],
      "name": "ListingUpdated",
      "type": "event"
    },
    {
      "inputs": [
        {
          "internalType": "address",
          "name": "nftAddress",
          "type": "address"
        },
        {
          "internalType": "uint256",
          "name": "tokenId",
          "type": "uint256"
        }
      ],
      "name": "cancelListing",
      "outputs": [],
      "stateMutability": "nonpayable",
      "type": "function"
    },
    {
      "inputs": [
        {
          "internalType": "address",
          "name": "nftAddress",
          "type": "address"
        },
        {
          "internalType": "uint256",
          "name": "tokenId",
          "type": "uint256"
        },
        {
          "internalType": "uint256",
          "name": "price",
          "type": "uint256"
        }
      ],
      "name": "createListing",
      "outputs": [],
      "stateMutability": "nonpayable",
      "type": "function"
    },
    {
      "inputs": [
        {
          "internalType": "address",
          "name": "",
          "type": "address"
        },
        {
          "internalType": "uint256",
          "name": "",
          "type": "uint256"
        }
      ],
      "name": "listings",
      "outputs": [
        {
          "internalType": "uint256",
          "name": "price",
          "type": "uint256"
        },
        {
          "internalType": "address",
          "name": "seller",
          "type": "address"
        }
      ],
      "stateMutability": "view",
      "type": "function"
    },
    {
      "inputs": [
        {
          "internalType": "address",
          "name": "nftAddress",
          "type": "address"
        },
        {
          "internalType": "uint256",
          "name": "tokenId",
          "type": "uint256"
        }
      ],
      "name": "purchaseListing",
      "outputs": [],
      "stateMutability": "payable",
      "type": "function"
    },
    {
      "inputs": [
        {
          "internalType": "address",
          "name": "nftAddress",
          "type": "address"
        },
        {
          "internalType": "uint256",
          "name": "tokenId",
          "type": "uint256"
        },
        {
          "internalType": "uint256",
          "name": "newPrice",
          "type": "uint256"
        }
      ],
      "name": "updateListing",
      "outputs": [],
      "stateMutability": "nonpayable",
      "type": "function"
    }
  ],
  "bytecode": "0x608060405234801561001057600080fd5b506114f4806100206000396000f3fe6080604052600436106100495760003560e01c806207df301461004e57806324780c561461008c578063a7fc91b9146100b5578063b2ddee06146100d1578063f772adf1146100fa575b600080fd5b34801561005a57600080fd5b5061007560048036038101906100709190610eaf565b610123565b6040516100839291906112ca565b60405180910390f35b34801561009857600080fd5b506100b360048036038101906100ae9190610eeb565b610174565b005b6100cf60048036038101906100ca9190610eaf565b6105e8565b005b3480156100dd57600080fd5b506100f860048036038101906100f39190610eaf565b610970565b005b34801561010657600080fd5b50610121600480360381019061011c9190610eeb565b610bc3565b005b6000602052816000526040600020602052806000526040600020600091509150508060000154908060010160009054906101000a900473ffffffffffffffffffffffffffffffffffffffff16905082565b828260008060008473ffffffffffffffffffffffffffffffffffffffff1673ffffffffffffffffffffffffffffffffffffffff1681526020019081526020016000206000838152602001908152602001600020600001541461020b576040517f08c379a0000000000000000000000000000000000000000000000000000000008152600401610202906111cf565b60405180910390fd5b84843373ffffffffffffffffffffffffffffffffffffffff168273ffffffffffffffffffffffffffffffffffffffff16636352211e836040518263ffffffff1660e01b815260040161025d91906112af565b60206040518083038186803b15801561027557600080fd5b505afa158015610289573d6000803e3d6000fd5b505050506040513d601f19601f820116820180604052508101906102ad9190610e86565b73ffffffffffffffffffffffffffffffffffffffff1614610303576040517f08c379a00000000000000000000000000000000000000000000000000000000081526004016102fa9061124f565b60405180910390fd5b60008511610346576040517f08c379a000000000000000000000000000000000000000000000000000000000815260040161033d9061120f565b60405180910390fd5b60008790508073ffffffffffffffffffffffffffffffffffffffff1663e985e9c533306040518363ffffffff1660e01b81526004016103869291906110ae565b60206040518083038186803b15801561039e57600080fd5b505afa1580156103b2573d6000803e3d6000fd5b505050506040513d601f19601f820116820180604052508101906103d69190610f3a565b8061049457503073ffffffffffffffffffffffffffffffffffffffff168173ffffffffffffffffffffffffffffffffffffffff1663081812fc896040518263ffffffff1660e01b815260040161042c91906112af565b60206040518083038186803b15801561044457600080fd5b505afa158015610458573d6000803e3d6000fd5b505050506040513d601f19601f8201168201806040525081019061047c9190610e86565b73ffffffffffffffffffffffffffffffffffffffff16145b6104d3576040517f08c379a00000000000000000000000000000000000000000000000000000000081526004016104ca9061128f565b60405180910390fd5b60405180604001604052808781526020013373ffffffffffffffffffffffffffffffffffffffff168152506000808a73ffffffffffffffffffffffffffffffffffffffff1673ffffffffffffffffffffffffffffffffffffffff16815260200190815260200160002060008981526020019081526020016000206000820151816000015560208201518160010160006101000a81548173ffffffffffffffffffffffffffffffffffffffff021916908373ffffffffffffffffffffffffffffffffffffffff1602179055509050507fdc801191e0c92935648f61c8e3d0cd8eac1d060269ddb920487d02ab0be69e7d888888336040516105d6949392919061118a565b60405180910390a15050505050505050565b818160008060008473ffffffffffffffffffffffffffffffffffffffff1673ffffffffffffffffffffffffffffffffffffffff1681526020019081526020016000206000838152602001908152602001600020600001541161067f576040517f08c379a0000000000000000000000000000000000000000000000000000000008152600401610676906111ef565b60405180910390fd5b60008060008673ffffffffffffffffffffffffffffffffffffffff1673ffffffffffffffffffffffffffffffffffffffff1681526020019081526020016000206000858152602001908152602001600020604051806040016040529081600082015481526020016001820160009054906101000a900473ffffffffffffffffffffffffffffffffffffffff1673ffffffffffffffffffffffffffffffffffffffff1673ffffffffffffffffffffffffffffffffffffffff1681525050905080600001513414610783576040517f08c379a000000000000000000000000000000000000000000000000000000000815260040161077a9061126f565b60405180910390fd5b6000808673ffffffffffffffffffffffffffffffffffffffff1673ffffffffffffffffffffffffffffffffffffffff16815260200190815260200160002060008581526020019081526020016000206000808201600090556001820160006101000a81549073ffffffffffffffffffffffffffffffffffffffff021916905550508473ffffffffffffffffffffffffffffffffffffffff166342842e0e826020015133876040518463ffffffff1660e01b8152600401610845939291906110d7565b600060405180830381600087803b15801561085f57600080fd5b505af1158015610873573d6000803e3d6000fd5b505050506000816020015173ffffffffffffffffffffffffffffffffffffffff16346040516108a190611099565b60006040518083038185875af1925050503d80600081146108de576040519150601f19603f3d011682016040523d82523d6000602084013e6108e3565b606091505b5050905080610927576040517f08c379a000000000000000000000000000000000000000000000000000000000815260040161091e9061122f565b60405180910390fd5b7fab7369fca6913c40e2bf7144b586a1a0e894bd32f5f9e74128cd89fb54f7bf9486868460200151336040516109609493929190611145565b60405180910390a1505050505050565b818160008060008473ffffffffffffffffffffffffffffffffffffffff1673ffffffffffffffffffffffffffffffffffffffff16815260200190815260200160002060008381526020019081526020016000206000015411610a07576040517f08c379a00000000000000000000000000000000000000000000000000000000081526004016109fe906111ef565b60405180910390fd5b83833373ffffffffffffffffffffffffffffffffffffffff168273ffffffffffffffffffffffffffffffffffffffff16636352211e836040518263ffffffff1660e01b8152600401610a5991906112af565b60206040518083038186803b158015610a7157600080fd5b505afa158015610a85573d6000803e3d6000fd5b505050506040513d601f19601f82011682018060405250810190610aa99190610e86565b73ffffffffffffffffffffffffffffffffffffffff1614610aff576040517f08c379a0000000000000000000000000000000000000000000000000000000008152600401610af69061124f565b60405180910390fd5b6000808773ffffffffffffffffffffffffffffffffffffffff1673ffffffffffffffffffffffffffffffffffffffff16815260200190815260200160002060008681526020019081526020016000206000808201600090556001820160006101000a81549073ffffffffffffffffffffffffffffffffffffffff021916905550507fcf45896873f759e6a8c2348e49ff9892b89458850ab6c70339e1c430227ce91d868633604051610bb39392919061110e565b60405180910390a1505050505050565b828260008060008473ffffffffffffffffffffffffffffffffffffffff1673ffffffffffffffffffffffffffffffffffffffff16815260200190815260200160002060008381526020019081526020016000206000015411610c5a576040517f08c379a0000000000000000000000000000000000000000000000000000000008152600401610c51906111ef565b60405180910390fd5b84843373ffffffffffffffffffffffffffffffffffffffff168273ffffffffffffffffffffffffffffffffffffffff16636352211e836040518263ffffffff1660e01b8152600401610cac91906112af565b60206040518083038186803b158015610cc457600080fd5b505afa158015610cd8573d6000803e3d6000fd5b505050506040513d601f19601f82011682018060405250810190610cfc9190610e86565b73ffffffffffffffffffffffffffffffffffffffff1614610d52576040517f08c379a0000000000000000000000000000000000000000000000000000000008152600401610d499061124f565b60405180910390fd5b60008511610d95576040517f08c379a0000000000000000000000000000000000000000000000000000000008152600401610d8c9061120f565b60405180910390fd5b846000808973ffffffffffffffffffffffffffffffffffffffff1673ffffffffffffffffffffffffffffffffffffffff1681526020019081526020016000206000888152602001908152602001600020600001819055507f3199bfdff711ec1ab8ab8449dc3b8d3fa30a59861a734a9d26f7b1a38162df7587878733604051610e21949392919061118a565b60405180910390a150505050505050565b600081359050610e4181611479565b92915050565b600081519050610e5681611479565b92915050565b600081519050610e6b81611490565b92915050565b600081359050610e80816114a7565b92915050565b600060208284031215610e9857600080fd5b6000610ea684828501610e47565b91505092915050565b60008060408385031215610ec257600080fd5b6000610ed085828601610e32565b9250506020610ee185828601610e71565b9150509250929050565b600080600060608486031215610f0057600080fd5b6000610f0e86828701610e32565b9350506020610f1f86828701610e71565b9250506040610f3086828701610e71565b9150509250925092565b600060208284031215610f4c57600080fd5b6000610f5a84828501610e5c565b91505092915050565b610f6c8161130f565b82525050565b6000610f7f6014836112fe565b9150610f8a82611357565b602082019050919050565b6000610fa26010836112fe565b9150610fad82611380565b602082019050919050565b6000610fc56017836112fe565b9150610fd0826113a9565b602082019050919050565b6000610fe86016836112fe565b9150610ff3826113d2565b602082019050919050565b600061100b6013836112fe565b9150611016826113fb565b602082019050919050565b600061102e601c836112fe565b915061103982611424565b602082019050919050565b60006110516000836112f3565b915061105c8261144d565b600082019050919050565b60006110746019836112fe565b915061107f82611450565b602082019050919050565b6110938161134d565b82525050565b60006110a482611044565b9150819050919050565b60006040820190506110c36000830185610f63565b6110d06020830184610f63565b9392505050565b60006060820190506110ec6000830186610f63565b6110f96020830185610f63565b611106604083018461108a565b949350505050565b60006060820190506111236000830186610f63565b611130602083018561108a565b61113d6040830184610f63565b949350505050565b600060808201905061115a6000830187610f63565b611167602083018661108a565b6111746040830185610f63565b6111816060830184610f63565b95945050505050565b600060808201905061119f6000830187610f63565b6111ac602083018661108a565b6111b9604083018561108a565b6111c66060830184610f63565b95945050505050565b600060208201905081810360008301526111e881610f72565b9050919050565b6000602082019050818103600083015261120881610f95565b9050919050565b6000602082019050818103600083015261122881610fb8565b9050919050565b6000602082019050818103600083015261124881610fdb565b9050919050565b6000602082019050818103600083015261126881610ffe565b9050919050565b6000602082019050818103600083015261128881611021565b9050919050565b600060208201905081810360008301526112a881611067565b9050919050565b60006020820190506112c4600083018461108a565b92915050565b60006040820190506112df600083018561108a565b6112ec6020830184610f63565b9392505050565b600081905092915050565b600082825260208201905092915050565b600061131a8261132d565b9050919050565b60008115159050919050565b600073ffffffffffffffffffffffffffffffffffffffff82169050919050565b6000819050919050565b7f4d524b543a20416c7265616479206c6973746564000000000000000000000000600082015250565b7f4d524b543a204e6f74206c697374656400000000000000000000000000000000600082015250565b7f4d524b543a205072696365206d757374206265203e2030000000000000000000600082015250565b7f4661696c656420746f207472616e736665722065746800000000000000000000600082015250565b7f4d524b543a204e6f7420746865206f776e657200000000000000000000000000600082015250565b7f4d524b543a20496e636f72726563742045544820737570706c69656400000000600082015250565b50565b7f4d524b543a204e6f20617070726f76616c20666f72204e465400000000000000600082015250565b6114828161130f565b811461148d57600080fd5b50565b61149981611321565b81146114a457600080fd5b50565b6114b08161134d565b81146114bb57600080fd5b5056fea26469706673582212201e7ea494b7b48193cbdb12367374db01c6ac082b6ee17a2df8a1124f2ccd0c2b64736f6c63430008040033",
  "linkReferences": {},
  "deployedLinkReferences": {}
}